{
  "_format": "hh-sol-artifact-1",
  "contractName": "DocumentVerifier",
  "sourceName": "contracts/DocumentVerifier.sol",
  "abi": [
    {
      "anonymous": false,
      "inputs": [
        {
          "indexed": false,
          "internalType": "string",
          "name": "fileHash",
          "type": "string"
        },
        {
          "indexed": false,
          "internalType": "string",
          "name": "title",
          "type": "string"
        },
        {
          "indexed": false,
          "internalType": "string",
          "name": "description",
          "type": "string"
        },
        {
          "indexed": true,
          "internalType": "address",
          "name": "owner",
          "type": "address"
        },
        {
          "indexed": false,
          "internalType": "uint256",
          "name": "timestamp",
          "type": "uint256"
        }
      ],
      "name": "DocumentUploaded",
      "type": "event"
    },
    {
      "anonymous": false,
      "inputs": [
        {
          "indexed": false,
          "internalType": "string",
          "name": "fileHash",
          "type": "string"
        },
        {
          "indexed": false,
          "internalType": "bool",
          "name": "isValid",
          "type": "bool"
        },
        {
          "indexed": true,
          "internalType": "address",
          "name": "verifier",
          "type": "address"
        }
      ],
      "name": "DocumentVerified",
      "type": "event"
    },
    {
      "inputs": [
        {
          "internalType": "string",
          "name": "fileHash",
          "type": "string"
        }
      ],
      "name": "deleteDocument",
      "outputs": [],
      "stateMutability": "nonpayable",
      "type": "function"
    },
    {
      "inputs": [
        {
          "internalType": "string[]",
          "name": "fileHashes",
          "type": "string[]"
        }
      ],
      "name": "deleteDocuments",
      "outputs": [],
      "stateMutability": "nonpayable",
      "type": "function"
    },
    {
      "inputs": [
        {
          "internalType": "string",
          "name": "fileHash",
          "type": "string"
        }
      ],
      "name": "getDocumentDetails",
      "outputs": [
        {
          "internalType": "string",
          "name": "title",
          "type": "string"
        },
        {
          "internalType": "string",
          "name": "description",
          "type": "string"
        },
        {
          "internalType": "address",
          "name": "owner",
          "type": "address"
        },
        {
          "internalType": "uint256",
          "name": "timestamp",
          "type": "uint256"
        }
      ],
      "stateMutability": "view",
      "type": "function"
    },
    {
      "inputs": [
        {
          "internalType": "address",
          "name": "user",
          "type": "address"
        }
      ],
      "name": "getUploadsByAddress",
      "outputs": [
        {
          "components": [
            {
              "internalType": "string",
              "name": "fileHash",
              "type": "string"
            },
            {
              "internalType": "string",
              "name": "title",
              "type": "string"
            },
            {
              "internalType": "string",
              "name": "description",
              "type": "string"
            },
            {
              "internalType": "address",
              "name": "owner",
              "type": "address"
            },
            {
              "internalType": "uint256",
              "name": "timestamp",
              "type": "uint256"
            }
          ],
          "internalType": "struct DocumentVerifier.Document[]",
          "name": "",
          "type": "tuple[]"
        }
      ],
      "stateMutability": "view",
      "type": "function"
    },
    {
      "inputs": [
        {
          "internalType": "address",
          "name": "",
          "type": "address"
        }
      ],
      "name": "isUploader",
      "outputs": [
        {
          "internalType": "bool",
          "name": "",
          "type": "bool"
        }
      ],
      "stateMutability": "view",
      "type": "function"
    },
    {
      "inputs": [
        {
          "internalType": "string",
          "name": "fileHash",
          "type": "string"
        },
        {
          "internalType": "string",
          "name": "title",
          "type": "string"
        },
        {
          "internalType": "string",
          "name": "description",
          "type": "string"
        }
      ],
      "name": "uploadDocument",
      "outputs": [],
      "stateMutability": "nonpayable",
      "type": "function"
    },
    {
      "inputs": [
        {
          "internalType": "string[]",
          "name": "fileHashes",
          "type": "string[]"
        },
        {
          "internalType": "string",
          "name": "title",
          "type": "string"
        },
        {
          "internalType": "string",
          "name": "description",
          "type": "string"
        }
      ],
      "name": "uploadDocuments",
      "outputs": [],
      "stateMutability": "nonpayable",
      "type": "function"
    },
    {
      "inputs": [
        {
          "internalType": "string",
          "name": "fileHash",
          "type": "string"
        }
      ],
      "name": "verifyDocument",
      "outputs": [
        {
          "internalType": "bool",
          "name": "isValid",
          "type": "bool"
        }
      ],
      "stateMutability": "view",
      "type": "function"
    }
  ],
  "bytecode": "0x608060405234801561001057600080fd5b5061238d806100206000396000f3fe608060405234801561001057600080fd5b50600436106100885760003560e01c806393f963741161005b57806393f96374146101255780639e987f9514610141578063beee5eb71461015d578063d29352db1461018d57610088565b8063147510e81461008d578063635994f8146100bd5780636db5426a146100d95780638343d81914610109575b600080fd5b6100a760048036038101906100a29190611854565b6101c0565b6040516100b49190611ea1565b60405180910390f35b6100d760048036038101906100d29190611955565b610641565b005b6100f360048036038101906100ee9190611854565b6109ac565b6040516101009190611ec3565b60405180910390f35b610123600480360381019061011e919061187d565b6109cc565b005b61013f600480360381019061013a91906118be565b610d9d565b005b61015b60048036038101906101569190611996565b611082565b005b61017760048036038101906101729190611955565b611301565b6040516101849190611ec3565b60405180910390f35b6101a760048036038101906101a29190611955565b61132f565b6040516101b79493929190611ede565b60405180910390f35b60606000600160008473ffffffffffffffffffffffffffffffffffffffff1673ffffffffffffffffffffffffffffffffffffffff168152602001908152602001600020805480602002602001604051908101604052809291908181526020016000905b828210156102cf57838290600052602060002001805461024290612227565b80601f016020809104026020016040519081016040528092919081815260200182805461026e90612227565b80156102bb5780601f10610290576101008083540402835291602001916102bb565b820191906000526020600020905b81548152906001019060200180831161029e57829003601f168201915b505050505081526020019060010190610223565b5050505090506000815167ffffffffffffffff811115610318577f4e487b7100000000000000000000000000000000000000000000000000000000600052604160045260246000fd5b60405190808252806020026020018201604052801561035157816020015b61033e61159b565b8152602001906001900390816103365790505b50905060005b825181101561063657600083828151811061039b577f4e487b7100000000000000000000000000000000000000000000000000000000600052603260045260246000fd5b60200260200101516040516103b09190611e8a565b90815260200160405180910390206040518060a00160405290816000820180546103d990612227565b80601f016020809104026020016040519081016040528092919081815260200182805461040590612227565b80156104525780601f1061042757610100808354040283529160200191610452565b820191906000526020600020905b81548152906001019060200180831161043557829003601f168201915b5050505050815260200160018201805461046b90612227565b80601f016020809104026020016040519081016040528092919081815260200182805461049790612227565b80156104e45780601f106104b9576101008083540402835291602001916104e4565b820191906000526020600020905b8154815290600101906020018083116104c757829003601f168201915b505050505081526020016002820180546104fd90612227565b80601f016020809104026020016040519081016040528092919081815260200182805461052990612227565b80156105765780601f1061054b57610100808354040283529160200191610576565b820191906000526020600020905b81548152906001019060200180831161055957829003601f168201915b505050505081526020016003820160009054906101000a900473ffffffffffffffffffffffffffffffffffffffff1673ffffffffffffffffffffffffffffffffffffffff1673ffffffffffffffffffffffffffffffffffffffff168152602001600482015481525050828281518110610618577f4e487b7100000000000000000000000000000000000000000000000000000000600052603260045260246000fd5b6020026020010181905250808061062e90612259565b915050610357565b508092505050919050565b600080826040516106529190611e8a565b90815260200160405180910390206004015414156106a5576040517f08c379a000000000000000000000000000000000000000000000000000000000815260040161069c90611feb565b60405180910390fd5b3373ffffffffffffffffffffffffffffffffffffffff166000826040516106cc9190611e8a565b908152602001604051809103902060030160009054906101000a900473ffffffffffffffffffffffffffffffffffffffff1673ffffffffffffffffffffffffffffffffffffffff1614610754576040517f08c379a000000000000000000000000000000000000000000000000000000000815260040161074b9061202b565b60405180910390fd5b6000816040516107649190611e8a565b90815260200160405180910390206000808201600061078391906115e0565b60018201600061079391906115e0565b6002820160006107a391906115e0565b6003820160006101000a81549073ffffffffffffffffffffffffffffffffffffffff0219169055600482016000905550506000600160003373ffffffffffffffffffffffffffffffffffffffff1673ffffffffffffffffffffffffffffffffffffffff168152602001908152602001600020905060005b81805490508110156109a7578280519060200120828281548110610867577f4e487b7100000000000000000000000000000000000000000000000000000000600052603260045260246000fd5b9060005260206000200160405161087e9190611e73565b6040518091039020141561099457816001838054905061089e9190612169565b815481106108d5577f4e487b7100000000000000000000000000000000000000000000000000000000600052603260045260246000fd5b90600052602060002001828281548110610918577f4e487b7100000000000000000000000000000000000000000000000000000000600052603260045260246000fd5b9060005260206000200190805461092e90612227565b610939929190611620565b5081805480610971577f4e487b7100000000000000000000000000000000000000000000000000000000600052603160045260246000fd5b60019003818190600052602060002001600061098d91906115e0565b90556109a7565b808061099f90612259565b91505061081a565b505050565b60026020528060005260406000206000915054906101000a900460ff1681565b60005b8151811015610d99576000828281518110610a13577f4e487b7100000000000000000000000000000000000000000000000000000000600052603260045260246000fd5b6020026020010151905060008082604051610a2e9190611e8a565b9081526020016040518091039020600401541415610a81576040517f08c379a0000000000000000000000000000000000000000000000000000000008152600401610a7890611f8b565b60405180910390fd5b3373ffffffffffffffffffffffffffffffffffffffff16600082604051610aa89190611e8a565b908152602001604051809103902060030160009054906101000a900473ffffffffffffffffffffffffffffffffffffffff1673ffffffffffffffffffffffffffffffffffffffff1614610b30576040517f08c379a0000000000000000000000000000000000000000000000000000000008152600401610b279061200b565b60405180910390fd5b600081604051610b409190611e8a565b908152602001604051809103902060008082016000610b5f91906115e0565b600182016000610b6f91906115e0565b600282016000610b7f91906115e0565b6003820160006101000a81549073ffffffffffffffffffffffffffffffffffffffff0219169055600482016000905550506000600160003373ffffffffffffffffffffffffffffffffffffffff1673ffffffffffffffffffffffffffffffffffffffff168152602001908152602001600020905060005b8180549050811015610d83578280519060200120828281548110610c43577f4e487b7100000000000000000000000000000000000000000000000000000000600052603260045260246000fd5b90600052602060002001604051610c5a9190611e73565b60405180910390201415610d70578160018380549050610c7a9190612169565b81548110610cb1577f4e487b7100000000000000000000000000000000000000000000000000000000600052603260045260246000fd5b90600052602060002001828281548110610cf4577f4e487b7100000000000000000000000000000000000000000000000000000000600052603260045260246000fd5b90600052602060002001908054610d0a90612227565b610d15929190611620565b5081805480610d4d577f4e487b7100000000000000000000000000000000000000000000000000000000600052603160045260246000fd5b600190038181906000526020600020016000610d6991906115e0565b9055610d83565b8080610d7b90612259565b915050610bf6565b5050508080610d9190612259565b9150506109cf565b5050565b60005b835181101561107c576000848281518110610de4577f4e487b7100000000000000000000000000000000000000000000000000000000600052603260045260246000fd5b602002602001015190506000815111610e32576040517f08c379a0000000000000000000000000000000000000000000000000000000008152600401610e2990611fcb565b60405180910390fd5b60008082604051610e439190611e8a565b90815260200160405180910390206004015414610e95576040517f08c379a0000000000000000000000000000000000000000000000000000000008152600401610e8c90611fab565b60405180910390fd5b6040518060a001604052808281526020018581526020018481526020013373ffffffffffffffffffffffffffffffffffffffff16815260200142815250600082604051610ee29190611e8a565b90815260200160405180910390206000820151816000019080519060200190610f0c9291906116ad565b506020820151816001019080519060200190610f299291906116ad565b506040820151816002019080519060200190610f469291906116ad565b5060608201518160030160006101000a81548173ffffffffffffffffffffffffffffffffffffffff021916908373ffffffffffffffffffffffffffffffffffffffff16021790555060808201518160040155905050600160003373ffffffffffffffffffffffffffffffffffffffff1673ffffffffffffffffffffffffffffffffffffffff168152602001908152602001600020819080600181540180825580915050600190039060005260206000200160009091909190915090805190602001906110139291906116ad565b503373ffffffffffffffffffffffffffffffffffffffff167f1295d49a57b126ef5e40e053d358a513aea4ed5472f11ad1da014d4c28cfcde8828686426040516110609493929190611f31565b60405180910390a250808061107490612259565b915050610da0565b50505050565b60008351116110c6576040517f08c379a00000000000000000000000000000000000000000000000000000000081526004016110bd90611fcb565b60405180910390fd5b600080846040516110d79190611e8a565b90815260200160405180910390206004015414611129576040517f08c379a000000000000000000000000000000000000000000000000000000000815260040161112090611fab565b60405180910390fd5b6040518060a001604052808481526020018381526020018281526020013373ffffffffffffffffffffffffffffffffffffffff168152602001428152506000846040516111769190611e8a565b908152602001604051809103902060008201518160000190805190602001906111a09291906116ad565b5060208201518160010190805190602001906111bd9291906116ad565b5060408201518160020190805190602001906111da9291906116ad565b5060608201518160030160006101000a81548173ffffffffffffffffffffffffffffffffffffffff021916908373ffffffffffffffffffffffffffffffffffffffff16021790555060808201518160040155905050600160003373ffffffffffffffffffffffffffffffffffffffff1673ffffffffffffffffffffffffffffffffffffffff168152602001908152602001600020839080600181540180825580915050600190039060005260206000200160009091909190915090805190602001906112a79291906116ad565b503373ffffffffffffffffffffffffffffffffffffffff167f1295d49a57b126ef5e40e053d358a513aea4ed5472f11ad1da014d4c28cfcde8848484426040516112f49493929190611f31565b60405180910390a2505050565b6000806000836040516113149190611e8a565b90815260200160405180910390206004015414159050919050565b606080600080600080866040516113469190611e8a565b90815260200160405180910390206040518060a001604052908160008201805461136f90612227565b80601f016020809104026020016040519081016040528092919081815260200182805461139b90612227565b80156113e85780601f106113bd576101008083540402835291602001916113e8565b820191906000526020600020905b8154815290600101906020018083116113cb57829003601f168201915b5050505050815260200160018201805461140190612227565b80601f016020809104026020016040519081016040528092919081815260200182805461142d90612227565b801561147a5780601f1061144f5761010080835404028352916020019161147a565b820191906000526020600020905b81548152906001019060200180831161145d57829003601f168201915b5050505050815260200160028201805461149390612227565b80601f01602080910402602001604051908101604052809291908181526020018280546114bf90612227565b801561150c5780601f106114e15761010080835404028352916020019161150c565b820191906000526020600020905b8154815290600101906020018083116114ef57829003601f168201915b505050505081526020016003820160009054906101000a900473ffffffffffffffffffffffffffffffffffffffff1673ffffffffffffffffffffffffffffffffffffffff1673ffffffffffffffffffffffffffffffffffffffff168152602001600482015481525050905080602001518160400151826060015183608001519450945094509450509193509193565b6040518060a00160405280606081526020016060815260200160608152602001600073ffffffffffffffffffffffffffffffffffffffff168152602001600081525090565b5080546115ec90612227565b6000825580601f106115fe575061161d565b601f01602090049060005260206000209081019061161c9190611733565b5b50565b82805461162c90612227565b90600052602060002090601f01602090048101928261164e576000855561169c565b82601f1061165f578054855561169c565b8280016001018555821561169c57600052602060002091601f016020900482015b8281111561169b578254825591600101919060010190611680565b5b5090506116a99190611733565b5090565b8280546116b990612227565b90600052602060002090601f0160209004810192826116db5760008555611722565b82601f106116f457805160ff1916838001178555611722565b82800160010185558215611722579182015b82811115611721578251825591602001919060010190611706565b5b50905061172f9190611733565b5090565b5b8082111561174c576000816000905550600101611734565b5090565b600061176361175e8461207c565b61204b565b9050808382526020820190508260005b858110156117a35781358501611789888261182a565b845260208401935060208301925050600181019050611773565b5050509392505050565b60006117c06117bb846120a8565b61204b565b9050828152602081018484840111156117d857600080fd5b6117e38482856121e5565b509392505050565b6000813590506117fa81612340565b92915050565b600082601f83011261181157600080fd5b8135611821848260208601611750565b91505092915050565b600082601f83011261183b57600080fd5b813561184b8482602086016117ad565b91505092915050565b60006020828403121561186657600080fd5b6000611874848285016117eb565b91505092915050565b60006020828403121561188f57600080fd5b600082013567ffffffffffffffff8111156118a957600080fd5b6118b584828501611800565b91505092915050565b6000806000606084860312156118d357600080fd5b600084013567ffffffffffffffff8111156118ed57600080fd5b6118f986828701611800565b935050602084013567ffffffffffffffff81111561191657600080fd5b6119228682870161182a565b925050604084013567ffffffffffffffff81111561193f57600080fd5b61194b8682870161182a565b9150509250925092565b60006020828403121561196757600080fd5b600082013567ffffffffffffffff81111561198157600080fd5b61198d8482850161182a565b91505092915050565b6000806000606084860312156119ab57600080fd5b600084013567ffffffffffffffff8111156119c557600080fd5b6119d18682870161182a565b935050602084013567ffffffffffffffff8111156119ee57600080fd5b6119fa8682870161182a565b925050604084013567ffffffffffffffff811115611a1757600080fd5b611a238682870161182a565b9150509250925092565b6000611a398383611dd1565b905092915050565b611a4a8161219d565b82525050565b611a598161219d565b82525050565b6000611a6a826120fd565b611a748185612120565b935083602082028501611a86856120d8565b8060005b85811015611ac25784840389528151611aa38582611a2d565b9450611aae83612113565b925060208a01995050600181019050611a8a565b50829750879550505050505092915050565b611add816121af565b82525050565b60008154611af081612227565b611afa8186612131565b94506001821660008114611b155760018114611b2657611b59565b60ff19831686528186019350611b59565b611b2f856120e8565b60005b83811015611b5157815481890152600182019150602081019050611b32565b838801955050505b50505092915050565b6000611b6d82612108565b611b77818561213c565b9350611b878185602086016121f4565b611b908161232f565b840191505092915050565b6000611ba682612108565b611bb0818561214d565b9350611bc08185602086016121f4565b611bc98161232f565b840191505092915050565b6000611bdf82612108565b611be9818561215e565b9350611bf98185602086016121f4565b80840191505092915050565b6000611c1260238361214d565b91507f4f6e65206f662074686520646f63756d656e747320646f6573206e6f7420657860008301527f69737400000000000000000000000000000000000000000000000000000000006020830152604082019050919050565b6000611c7860178361214d565b91507f446f63756d656e7420616c7265616479206578697374730000000000000000006000830152602082019050919050565b6000611cb860118361214d565b91507f496e76616c69642066696c6520686173680000000000000000000000000000006000830152602082019050919050565b6000611cf860178361214d565b91507f446f63756d656e7420646f6573206e6f742065786973740000000000000000006000830152602082019050919050565b6000611d3860268361214d565b91507f4e6f7420746865206f776e6572206f66206f6e65206f72206d6f726520646f6360008301527f756d656e747300000000000000000000000000000000000000000000000000006020830152604082019050919050565b6000611d9e601e8361214d565b91507f4e6f7420746865206f776e6572206f66207468697320646f63756d656e7400006000830152602082019050919050565b600060a0830160008301518482036000860152611dee8282611b62565b91505060208301518482036020860152611e088282611b62565b91505060408301518482036040860152611e228282611b62565b9150506060830151611e376060860182611a41565b506080830151611e4a6080860182611e55565b508091505092915050565b611e5e816121db565b82525050565b611e6d816121db565b82525050565b6000611e7f8284611ae3565b915081905092915050565b6000611e968284611bd4565b915081905092915050565b60006020820190508181036000830152611ebb8184611a5f565b905092915050565b6000602082019050611ed86000830184611ad4565b92915050565b60006080820190508181036000830152611ef88187611b9b565b90508181036020830152611f0c8186611b9b565b9050611f1b6040830185611a50565b611f286060830184611e64565b95945050505050565b60006080820190508181036000830152611f4b8187611b9b565b90508181036020830152611f5f8186611b9b565b90508181036040830152611f738185611b9b565b9050611f826060830184611e64565b95945050505050565b60006020820190508181036000830152611fa481611c05565b9050919050565b60006020820190508181036000830152611fc481611c6b565b9050919050565b60006020820190508181036000830152611fe481611cab565b9050919050565b6000602082019050818103600083015261200481611ceb565b9050919050565b6000602082019050818103600083015261202481611d2b565b9050919050565b6000602082019050818103600083015261204481611d91565b9050919050565b6000604051905081810181811067ffffffffffffffff8211171561207257612071612300565b5b8060405250919050565b600067ffffffffffffffff82111561209757612096612300565b5b602082029050602081019050919050565b600067ffffffffffffffff8211156120c3576120c2612300565b5b601f19601f8301169050602081019050919050565b6000819050602082019050919050565b60008190508160005260206000209050919050565b600081519050919050565b600081519050919050565b6000602082019050919050565b600082825260208201905092915050565b600081905092915050565b600082825260208201905092915050565b600082825260208201905092915050565b600081905092915050565b6000612174826121db565b915061217f836121db565b925082821015612192576121916122a2565b5b828203905092915050565b60006121a8826121bb565b9050919050565b60008115159050919050565b600073ffffffffffffffffffffffffffffffffffffffff82169050919050565b6000819050919050565b82818337600083830152505050565b60005b838110156122125780820151818401526020810190506121f7565b83811115612221576000848401525b50505050565b6000600282049050600182168061223f57607f821691505b60208210811415612253576122526122d1565b5b50919050565b6000612264826121db565b91507fffffffffffffffffffffffffffffffffffffffffffffffffffffffffffffffff821415612297576122966122a2565b5b600182019050919050565b7f4e487b7100000000000000000000000000000000000000000000000000000000600052601160045260246000fd5b7f4e487b7100000000000000000000000000000000000000000000000000000000600052602260045260246000fd5b7f4e487b7100000000000000000000000000000000000000000000000000000000600052604160045260246000fd5b6000601f19601f8301169050919050565b6123498161219d565b811461235457600080fd5b5056fea26469706673582212206c447dacb23c6d9aa91d058ab31062d09ab6e215aa9bbfbee3b2dc3d63b6466864736f6c63430008000033",
  "linkReferences": {},
  "deployedLinkReferences": {}
}