{
  "_format": "hh-sol-artifact-1",
  "contractName": "DocumentVerifier",
  "sourceName": "contracts/DocumentVerifier.sol",
  "abi": [
    {
      "anonymous": false,
      "inputs": [
        {
          "indexed": false,
          "internalType": "string",
          "name": "fileHash",
          "type": "string"
        },
        {
          "indexed": false,
          "internalType": "string",
          "name": "title",
          "type": "string"
        },
        {
          "indexed": false,
          "internalType": "string",
          "name": "description",
          "type": "string"
        },
        {
          "indexed": true,
          "internalType": "address",
          "name": "owner",
          "type": "address"
        },
        {
          "indexed": false,
          "internalType": "uint256",
          "name": "timestamp",
          "type": "uint256"
        }
      ],
      "name": "DocumentUploaded",
      "type": "event"
    },
    {
      "anonymous": false,
      "inputs": [
        {
          "indexed": false,
          "internalType": "string",
          "name": "fileHash",
          "type": "string"
        },
        {
          "indexed": false,
          "internalType": "bool",
          "name": "isValid",
          "type": "bool"
        },
        {
          "indexed": true,
          "internalType": "address",
          "name": "verifier",
          "type": "address"
        }
      ],
      "name": "DocumentVerified",
      "type": "event"
    },
    {
      "inputs": [
        {
          "internalType": "string",
          "name": "fileHash",
          "type": "string"
        }
      ],
      "name": "getDocumentDetails",
      "outputs": [
        {
          "internalType": "string",
          "name": "title",
          "type": "string"
        },
        {
          "internalType": "string",
          "name": "description",
          "type": "string"
        },
        {
          "internalType": "address",
          "name": "owner",
          "type": "address"
        },
        {
          "internalType": "uint256",
          "name": "timestamp",
          "type": "uint256"
        }
      ],
      "stateMutability": "view",
      "type": "function"
    },
    {
      "inputs": [
        {
          "internalType": "address",
          "name": "user",
          "type": "address"
        }
      ],
      "name": "getUploadsByAddress",
      "outputs": [
        {
          "components": [
            {
              "internalType": "string",
              "name": "fileHash",
              "type": "string"
            },
            {
              "internalType": "string",
              "name": "title",
              "type": "string"
            },
            {
              "internalType": "string",
              "name": "description",
              "type": "string"
            },
            {
              "internalType": "address",
              "name": "owner",
              "type": "address"
            },
            {
              "internalType": "uint256",
              "name": "timestamp",
              "type": "uint256"
            }
          ],
          "internalType": "struct DocumentVerifier.Document[]",
          "name": "",
          "type": "tuple[]"
        }
      ],
      "stateMutability": "view",
      "type": "function"
    },
    {
      "inputs": [
        {
          "internalType": "address",
          "name": "",
          "type": "address"
        }
      ],
      "name": "isUploader",
      "outputs": [
        {
          "internalType": "bool",
          "name": "",
          "type": "bool"
        }
      ],
      "stateMutability": "view",
      "type": "function"
    },
    {
      "inputs": [
        {
          "internalType": "string",
          "name": "fileHash",
          "type": "string"
        },
        {
          "internalType": "string",
          "name": "title",
          "type": "string"
        },
        {
          "internalType": "string",
          "name": "description",
          "type": "string"
        }
      ],
      "name": "uploadDocument",
      "outputs": [],
      "stateMutability": "nonpayable",
      "type": "function"
    },
    {
      "inputs": [
        {
          "internalType": "string",
          "name": "fileHash",
          "type": "string"
        }
      ],
      "name": "verifyDocument",
      "outputs": [
        {
          "internalType": "bool",
          "name": "isValid",
          "type": "bool"
        }
      ],
      "stateMutability": "view",
      "type": "function"
    }
  ],
  "bytecode": "0x608060405234801561001057600080fd5b506113d9806100206000396000f3fe608060405234801561001057600080fd5b50600436106100575760003560e01c8063147510e81461005c5780636db5426a1461008c5780639e987f95146100bc578063beee5eb7146100d8578063d29352db14610108575b600080fd5b61007660048036038101906100719190610c5a565b61013b565b6040516100839190610fed565b60405180910390f35b6100a660048036038101906100a19190610c5a565b6105bc565b6040516100b3919061100f565b60405180910390f35b6100d660048036038101906100d19190610cc4565b6105dc565b005b6100f260048036038101906100ed9190610c83565b61085b565b6040516100ff919061100f565b60405180910390f35b610122600480360381019061011d9190610c83565b610889565b604051610132949392919061102a565b60405180910390f35b60606000600160008473ffffffffffffffffffffffffffffffffffffffff1673ffffffffffffffffffffffffffffffffffffffff168152602001908152602001600020805480602002602001604051908101604052809291908181526020016000905b8282101561024a5783829060005260206000200180546101bd90611273565b80601f01602080910402602001604051908101604052809291908181526020018280546101e990611273565b80156102365780601f1061020b57610100808354040283529160200191610236565b820191906000526020600020905b81548152906001019060200180831161021957829003601f168201915b50505050508152602001906001019061019e565b5050505090506000815167ffffffffffffffff811115610293577f4e487b7100000000000000000000000000000000000000000000000000000000600052604160045260246000fd5b6040519080825280602002602001820160405280156102cc57816020015b6102b9610af5565b8152602001906001900390816102b15790505b50905060005b82518110156105b1576000838281518110610316577f4e487b7100000000000000000000000000000000000000000000000000000000600052603260045260246000fd5b602002602001015160405161032b9190610fd6565b90815260200160405180910390206040518060a001604052908160008201805461035490611273565b80601f016020809104026020016040519081016040528092919081815260200182805461038090611273565b80156103cd5780601f106103a2576101008083540402835291602001916103cd565b820191906000526020600020905b8154815290600101906020018083116103b057829003601f168201915b505050505081526020016001820180546103e690611273565b80601f016020809104026020016040519081016040528092919081815260200182805461041290611273565b801561045f5780601f106104345761010080835404028352916020019161045f565b820191906000526020600020905b81548152906001019060200180831161044257829003601f168201915b5050505050815260200160028201805461047890611273565b80601f01602080910402602001604051908101604052809291908181526020018280546104a490611273565b80156104f15780601f106104c6576101008083540402835291602001916104f1565b820191906000526020600020905b8154815290600101906020018083116104d457829003601f168201915b505050505081526020016003820160009054906101000a900473ffffffffffffffffffffffffffffffffffffffff1673ffffffffffffffffffffffffffffffffffffffff1673ffffffffffffffffffffffffffffffffffffffff168152602001600482015481525050828281518110610593577f4e487b7100000000000000000000000000000000000000000000000000000000600052603260045260246000fd5b602002602001018190525080806105a9906112a5565b9150506102d2565b508092505050919050565b60026020528060005260406000206000915054906101000a900460ff1681565b6000835111610620576040517f08c379a0000000000000000000000000000000000000000000000000000000008152600401610617906110f7565b60405180910390fd5b600080846040516106319190610fd6565b90815260200160405180910390206004015414610683576040517f08c379a000000000000000000000000000000000000000000000000000000000815260040161067a906110d7565b60405180910390fd5b6040518060a001604052808481526020018381526020018281526020013373ffffffffffffffffffffffffffffffffffffffff168152602001428152506000846040516106d09190610fd6565b908152602001604051809103902060008201518160000190805190602001906106fa929190610b3a565b506020820151816001019080519060200190610717929190610b3a565b506040820151816002019080519060200190610734929190610b3a565b5060608201518160030160006101000a81548173ffffffffffffffffffffffffffffffffffffffff021916908373ffffffffffffffffffffffffffffffffffffffff16021790555060808201518160040155905050600160003373ffffffffffffffffffffffffffffffffffffffff1673ffffffffffffffffffffffffffffffffffffffff16815260200190815260200160002083908060018154018082558091505060019003906000526020600020016000909190919091509080519060200190610801929190610b3a565b503373ffffffffffffffffffffffffffffffffffffffff167f1295d49a57b126ef5e40e053d358a513aea4ed5472f11ad1da014d4c28cfcde88484844260405161084e949392919061107d565b60405180910390a2505050565b60008060008360405161086e9190610fd6565b90815260200160405180910390206004015414159050919050565b606080600080600080866040516108a09190610fd6565b90815260200160405180910390206040518060a00160405290816000820180546108c990611273565b80601f01602080910402602001604051908101604052809291908181526020018280546108f590611273565b80156109425780601f1061091757610100808354040283529160200191610942565b820191906000526020600020905b81548152906001019060200180831161092557829003601f168201915b5050505050815260200160018201805461095b90611273565b80601f016020809104026020016040519081016040528092919081815260200182805461098790611273565b80156109d45780601f106109a9576101008083540402835291602001916109d4565b820191906000526020600020905b8154815290600101906020018083116109b757829003601f168201915b505050505081526020016002820180546109ed90611273565b80601f0160208091040260200160405190810160405280929190818152602001828054610a1990611273565b8015610a665780601f10610a3b57610100808354040283529160200191610a66565b820191906000526020600020905b815481529060010190602001808311610a4957829003601f168201915b505050505081526020016003820160009054906101000a900473ffffffffffffffffffffffffffffffffffffffff1673ffffffffffffffffffffffffffffffffffffffff1673ffffffffffffffffffffffffffffffffffffffff168152602001600482015481525050905080602001518160400151826060015183608001519450945094509450509193509193565b6040518060a00160405280606081526020016060815260200160608152602001600073ffffffffffffffffffffffffffffffffffffffff168152602001600081525090565b828054610b4690611273565b90600052602060002090601f016020900481019282610b685760008555610baf565b82601f10610b8157805160ff1916838001178555610baf565b82800160010185558215610baf579182015b82811115610bae578251825591602001919060010190610b93565b5b509050610bbc9190610bc0565b5090565b5b80821115610bd9576000816000905550600101610bc1565b5090565b6000610bf0610beb84611148565b611117565b905082815260208101848484011115610c0857600080fd5b610c13848285611231565b509392505050565b600081359050610c2a8161138c565b92915050565b600082601f830112610c4157600080fd5b8135610c51848260208601610bdd565b91505092915050565b600060208284031215610c6c57600080fd5b6000610c7a84828501610c1b565b91505092915050565b600060208284031215610c9557600080fd5b600082013567ffffffffffffffff811115610caf57600080fd5b610cbb84828501610c30565b91505092915050565b600080600060608486031215610cd957600080fd5b600084013567ffffffffffffffff811115610cf357600080fd5b610cff86828701610c30565b935050602084013567ffffffffffffffff811115610d1c57600080fd5b610d2886828701610c30565b925050604084013567ffffffffffffffff811115610d4557600080fd5b610d5186828701610c30565b9150509250925092565b6000610d678383610f34565b905092915050565b610d78816111e9565b82525050565b610d87816111e9565b82525050565b6000610d9882611188565b610da281856111ab565b935083602082028501610db485611178565b8060005b85811015610df05784840389528151610dd18582610d5b565b9450610ddc8361119e565b925060208a01995050600181019050610db8565b50829750879550505050505092915050565b610e0b816111fb565b82525050565b6000610e1c82611193565b610e2681856111bc565b9350610e36818560208601611240565b610e3f8161137b565b840191505092915050565b6000610e5582611193565b610e5f81856111cd565b9350610e6f818560208601611240565b610e788161137b565b840191505092915050565b6000610e8e82611193565b610e9881856111de565b9350610ea8818560208601611240565b80840191505092915050565b6000610ec16017836111cd565b91507f446f63756d656e7420616c7265616479206578697374730000000000000000006000830152602082019050919050565b6000610f016011836111cd565b91507f496e76616c69642066696c6520686173680000000000000000000000000000006000830152602082019050919050565b600060a0830160008301518482036000860152610f518282610e11565b91505060208301518482036020860152610f6b8282610e11565b91505060408301518482036040860152610f858282610e11565b9150506060830151610f9a6060860182610d6f565b506080830151610fad6080860182610fb8565b508091505092915050565b610fc181611227565b82525050565b610fd081611227565b82525050565b6000610fe28284610e83565b915081905092915050565b600060208201905081810360008301526110078184610d8d565b905092915050565b60006020820190506110246000830184610e02565b92915050565b600060808201905081810360008301526110448187610e4a565b905081810360208301526110588186610e4a565b90506110676040830185610d7e565b6110746060830184610fc7565b95945050505050565b600060808201905081810360008301526110978187610e4a565b905081810360208301526110ab8186610e4a565b905081810360408301526110bf8185610e4a565b90506110ce6060830184610fc7565b95945050505050565b600060208201905081810360008301526110f081610eb4565b9050919050565b6000602082019050818103600083015261111081610ef4565b9050919050565b6000604051905081810181811067ffffffffffffffff8211171561113e5761113d61134c565b5b8060405250919050565b600067ffffffffffffffff8211156111635761116261134c565b5b601f19601f8301169050602081019050919050565b6000819050602082019050919050565b600081519050919050565b600081519050919050565b6000602082019050919050565b600082825260208201905092915050565b600082825260208201905092915050565b600082825260208201905092915050565b600081905092915050565b60006111f482611207565b9050919050565b60008115159050919050565b600073ffffffffffffffffffffffffffffffffffffffff82169050919050565b6000819050919050565b82818337600083830152505050565b60005b8381101561125e578082015181840152602081019050611243565b8381111561126d576000848401525b50505050565b6000600282049050600182168061128b57607f821691505b6020821081141561129f5761129e61131d565b5b50919050565b60006112b082611227565b91507fffffffffffffffffffffffffffffffffffffffffffffffffffffffffffffffff8214156112e3576112e26112ee565b5b600182019050919050565b7f4e487b7100000000000000000000000000000000000000000000000000000000600052601160045260246000fd5b7f4e487b7100000000000000000000000000000000000000000000000000000000600052602260045260246000fd5b7f4e487b7100000000000000000000000000000000000000000000000000000000600052604160045260246000fd5b6000601f19601f8301169050919050565b611395816111e9565b81146113a057600080fd5b5056fea26469706673582212203ce5654fc632bab28261b3d5335ec2647be8a242a8e5d8cf42b05e41e1bc534d64736f6c63430008000033",
  "linkReferences": {},
  "deployedLinkReferences": {}
}